:100000000C946F010C9497010C9497010C94970138
:100010000C9497010C9497010C9497010C94970100
:100020000C9497010C9497010C94AE060C945D050A
:100030000C949D030C9497010C9497010C949701D8
:100040000C9497010C9497010C9497010C949701D0
:100050000C9497010C9497010C9497010C94C60191
:100060000C9497010C9497010C9497010C949701B0
:100070000C9497010C9497010C9497010C949701A0
:100080000C9497010C9497010C9497010C94970190
:100090000C9497010C9497010C9497010C94970180
:1000A0000C9497010C9497010C949701C502C80217
:1000B000BB02BF02E902E902E902CC02D002D4028B
:1000C000DA02DE02E902E4020000000200080E008B
:1000D00000030401000B00000000040802011040AE
:1000E00080401020408040800802040180402010A1
:1000F000020110801020404004040404040304059D
:1001000002020202040302020202060606060606B4
:1001100004040202020400000000250028002B0055
:100120002E00310000000000240027002A002D00CE
:10013000300000C18081C112010002020000404174
:1001400023398000010102000112010002000000B9
:10015000404123398000010102000118034100726F
:10016000006400750069006E006F0020004C004CB8
:100170000043002203550053004200200049004F75
:1001800000200042006F0061007200640020002027
:10019000002000200004030904080B0002020201F1
:1001A00000090400000102020000052400100105FE
:1001B000240101010424020605240600010705812B
:1001C0000310004009040100020A000000070502B4
:1001D000024000000705830240000000000000000C
:1001E0000000002A2B280000000000000000000092
:1001F00000000000000000000000002C9EB4A0A140
:10020000A2A434A6A7A5AE362D3738271E1F20215D
:100210002223242526B333B62EB7B89F848586873C
:1002200088898A8B8C8D8E8F9091929394959697D6
:1002300098999A9B9C9D2F3130A3AD3504050607F4
:1002400008090A0B0C0D0E0F1011121314151617B6
:1002500018191A1B1C1DAFB1B0B50009040200012A
:100260000300000009210101000122650007058447
:100270000340000105010902A1010901A100850156
:10028000050919012903150025019503750181024E
:10029000950175058103050109300931093815817A
:1002A000257F750895038106C0C005010906A101D7
:1002B0008502050719E029E7150025017501950854
:1002C000810295017508810395067508150025655D
:1002D0000507190029658100C0000608440911249A
:1002E0001FBECFEFDAE0DEBFCDBF11E0A0E0B1E08E
:1002F000EEEFF2E102C005900D92AA32B107D9F7F4
:1003000021E0AAE2B1E001C01D92AC39B207E1F7E9
:1003100011E0CFE6D1E004C02197FE010E947709E9
:10032000CD36D107C9F70E94B5010C947D090C9414
:10033000000061E08DE00C94EA0261E08DE00E9433
:10034000260360ED77E080E090E00E94350260E0F7
:100350008DE00E94260320E030E040E050E067E0BE
:1003600070E083E391E00C9456030E945B0284E307
:1003700091E00E9490060E949901C0E0D0E00E94A6
:100380009D012097E1F30E940000F9CF1F920F9288
:100390000FB60F9211242F933F938F939F93AF9398
:1003A000BF9380912B0190912C01A0912D01B091D0
:1003B0002E0130912A0123E0230F2D3720F40196DE
:1003C000A11DB11D05C026E8230F0296A11DB11D78
:1003D00020932A0180932B0190932C01A0932D014F
:1003E000B0932E0180912F0190913001A0913101A5
:1003F000B09132010196A11DB11D80932F01909300
:100400003001A0933101B0933201BF91AF919F9120
:100410008F913F912F910F900FBE0F901F901895C5
:100420003FB7F89480912F0190913001A091310154
:10043000B091320126B5A89B05C02F3F19F0019657
:10044000A11DB11D3FBFBA2FA92F982F8827820F5A
:10045000911DA11DB11DBC01CD0142E0660F771FAA
:10046000881F991F4A95D1F70895CF92DF92EF9296
:10047000FF92CF93DF936B017C010E941002EB018E
:10048000C114D104E104F10479F00E9410026C1B44
:100490007D0B683E7340A0F381E0C81AD108E108E3
:1004A000F108C851DC4FECCFDF91CF91FF90EF9076
:1004B000DF90CF900895789484B5826084BD84B530
:1004C000816084BD85B5826085BD85B5816085BD4F
:1004D000EEE6F0E0808181608083E1E8F0E0108268
:1004E000808182608083808181608083E0E8F0E0A9
:1004F000808181608083E1E9F0E080818260808397
:10050000808181608083E0E9F0E080818160808388
:10051000E1ECF0E080818460808380818260808370
:10052000808181608083E3ECF0E080818160808362
:10053000E0ECF0E0808182608083E2ECF0E080819A
:1005400081608083EAE7F0E080818460808380813D
:1005500082608083808181608083808180688083E5
:10056000089590E0FC013197EE30F10590F5EA5ADC
:10057000FF4F0C947709809180008F7703C08091A2
:1005800080008F7D80938000089584B58F7702C0AE
:1005900084B58F7D84BD0895809190008F7707C0CA
:1005A000809190008F7D03C080919000877F809321
:1005B000900008958091C0008F7703C08091C000A3
:1005C0008F7D8093C00008958091C200877F8093C3
:1005D000C2000895CF93DF9390E0FC01E652FF4FF5
:1005E0002491FC01E850FF4F8491882361F190E051
:1005F000880F991FFC01EC5DFE4FC591D491FC0161
:10060000EA5EFE4FA591B491611109C09FB7F894BD
:100610008881209582238883EC912E230BC0623041
:1006200061F49FB7F8943881822F80958323888363
:10063000EC912E2B2C939FBF06C08FB7F894E881C6
:100640002E2B28838FBFDF91CF9108951F93CF93D7
:10065000DF93282F30E0F901E853FF4F8491F9012F
:10066000E652FF4FD491F901E850FF4FC491CC23DB
:10067000C9F0162F81110E94B102EC2FF0E0EE0FAD
:10068000FF1FEA5EFE4FA591B4918FB7F894111148
:1006900005C09C91ED2FE095E92302C0EC91ED2B74
:1006A000EC938FBFDF91CF911F91089541155105B4
:1006B00029F4EAE7F0E080818F7780836A30710562
:1006C000A9F063FD02C088E001C088E26770682B72
:1006D00088E10FB6F894A895809360000FBE6093F0
:1006E0006000E0E6F0E0808180648083232B79F471
:1006F00083B7817F846083BFF89483B7816083BFB1
:100700007894889583B78E7F83BF78940EC083B723
:10071000817F846083BFF89483B7816083BF7894BE
:10072000889583B78E7F83BF7894452B29F4EAE7B9
:10073000F0E080818068808308951F920F920FB649
:100740000F9211248F930FB6F894A89580916000B2
:10075000886180936000109260000FBE8F910F90AF
:100760000FBE0F901F901895615030F02091F1004E
:10077000FC0120830196F8CF289884E680933B0102
:1007800008952FB7FC012083F89467706093E90007
:100790000895CF93DF931F92CDB7DEB7682FCE01B8
:1007A00001960E94C1038091F20099819FBF0F9032
:1007B000DF91CF910895EF92FF920F931F93CF9304
:1007C000DF931F92CDB7DEB790913A01992311F0D4
:1007D00057FF03C08FEF9FEF2AC08A017B01682F6C
:1007E000CE0101960E94C1038091F20090E0A80121
:1007F000801791070CF4AC01842FF70194E6815027
:1008000038F0289890933B012091F1002193F7CF85
:100810004115510521F08091F200882321F0898152
:100820008FBFCA0104C08BE68093E800F8CF0F9019
:10083000DF91CF911F910F91FF90EF900895CF938B
:10084000DF931F92CDB7DEB741E050E0BE016F5F8E
:100850007F4F0E94DB03019719F4898190E002C069
:100860008FEF9FEF0F90DF91CF910895CF93DF939C
:100870001F92CDB7DEB7682FCE0101960E94C1034B
:100880009091E800892F807295FF04C09091F2004A
:1008900080E4891B99819FBF0F90DF91CF910895CC
:1008A0004F925F926F927F928F929F92AF92BF9280
:1008B000CF92DF92EF92FF920F931F93CF93DF932C
:1008C0001F92CDB7DEB7A82E6B01B42E052F8091F5
:1008D0003A01882369F0E42EF52E8AEF782E8A2DCE
:1008E0008072582E9AE3692E8A2D8074482E12C089
:1008F0008FEF9FEF50C08A2D0E943604182F811170
:100900000DC07A947720A1F361E070E080E090E080
:100910000E943502E114F10471F733C090E0E8164B
:10092000F9060CF41E2D812E912CE818F9086A2D79
:10093000CE0101960E94C103552029F01150A8F064
:100940001092F100FBCFF601A7FE07C0115058F03E
:1009500084918093F1003196F9CF115020F081916C
:100960008093F100FACFC80CD91C8091E80085FF74
:100970000FC0E114F10411F441100AC089818FBF46
:10098000C9CF5D9884E680933C018B2D902F03C0E6
:100990006092E800F3CF0F90DF91CF911F910F91FC
:1009A000FF90EF90DF90CF90BF90AF909F908F908F
:1009B0007F906F905F904F9008951092E900109291
:1009C00039011092380190933701809336010895D0
:1009D0000F931F93CF93DF93DB01A40FB51FFB0190
:1009E0006EEFEA17FB0791F187FF02C0249101C067
:1009F00020810091380110913901C0913601D091C8
:100A000037010C171D07B4F49091E8009570E1F3DD
:100A10009091E80092FD1CC02093F10020913801D4
:100A2000309139012F5F3F4F2F733327232B11F460
:100A30006093E80020913801309139012F5F3F4FDA
:100A400030933901209338013196CBCFCA0102C0CF
:100A50008FEF9FEFDF91CF911F910F9108951F931B
:100A6000CF93DF931F92CDB7DEB7162F2091E8000A
:100A700022FFFCCF612F79830E94B4038BEF809318
:100A8000E800812F7981972F0F90DF91CF911F91EF
:100A90000895CF93DF931F92CDB7DEB71982CE01B1
:100AA00001960E94A207CE0101960E943508898115
:100AB00090E00F90DF91CF9108951F920F920FB6A3
:100AC0000F921124CF92DF92EF92FF921F932F93F8
:100AD0003F934F935F936F937F938F939F93AF93C6
:100AE000BF93EF93FF93CF93DF93CDB7DEB76197BB
:100AF000DEBFCDBF1092E9008091E80083FFE8C01F
:100B000068E0CE010A960E94B40382EF8093E80069
:100B10009A8597FF05C08091E80080FFFCCF03C055
:100B20008EEF8093E800892F807609F0B6C08B8520
:100B3000811105C01092F1001092F100C2C0282F5F
:100B40002D7F213009F4BDC0853049F48091E80043
:100B500080FFFCCF8C8580688093E300B2C0863034
:100B600009F06FC01D85E888F988123069F580E0CA
:100B700090E00E94DD040E94490599E09E012F5FEC
:100B80003F4F6901F901292F11922A95E9F79983BD
:100B90001A8391E09E8390E898879AEF9987209135
:100BA000380130913901275F3F4F3C832B838D8380
:100BB000C7010E94DD0449E050E0B60180E00E94D8
:100BC000E8040E9449057DC0C7010E94DD0412327D
:100BD00041F482E290E00E944008892B09F071C044
:100BE00074C0113069F488899989089711F41093B9
:100BF000350180913501811111C069E471E016C0A1
:100C0000133009F062C08C85882359F0823061F07E
:100C1000813009F05AC06BE571E008C067E371E00C
:100C200005C065E971E002C063E771E06115710517
:100C300009F44BC0FB01449150E080E80E94E804B5
:100C400040C0873009F441C0883021F481E08093AE
:100C5000F10037C08930A9F59370B9F580E090E0D4
:100C600031E026E341E0480F4093E9003093EB0088
:100C70000196FC01EE5CFE4FE491E093EC002093C2
:100C8000ED008430910571F78EE78093EA001092B1
:100C9000EA008C8580933A0114C0888999890E9462
:100CA000DD048E85811105C0CE010A960E94AD0734
:100CB00006C0823051F4CE010A960E94680888234B
:100CC00021F08EEF8093E80003C081E28093EB0077
:100CD00061960FB6F894DEBF0FBECDBFDF91CF9106
:100CE000FF91EF91BF91AF919F918F917F916F9104
:100CF0005F914F913F912F911F91FF90EF90DF9067
:100D0000CF900F900FBE0F901F9018958093E90021
:100D10008091F200882319F08AE38093E800089517
:100D200010923A0181E08093D70080EA8093D80046
:100D300082E189BD09B400FEFDCF61E070E080E092
:100D400090E00E94350280E98093D8008CE0809387
:100D5000E2001092E000559A209A08951F920F9297
:100D60000FB60F9211242F933F934F935F936F937E
:100D70007F938F939F93AF93BF93EF93FF93809154
:100D8000E1001092E10083FF0FC01092E90091E0B2
:100D90009093EB001092EC0092E39093ED00109290
:100DA0003A0198E09093F00082FF26C083E00E9411
:100DB000860682E00E94C903882321F08DE391E03A
:100DC0000E94540780913C01882339F080913C01B6
:100DD000815080933C01882369F080913B018823F6
:100DE00059F080913B01815080933B01811104C0F7
:100DF000289A02C05D9AF1CFFF91EF91BF91AF9118
:100E00009F918F917F916F915F914F913F912F9122
:100E10000F900FBE0F901F90189580918B019091AD
:100E20008C0120918D0130918E01821B930B8F7369
:100E30009927089520918B0130918C0180918D012B
:100E400090918E012817390749F0E0918D01F091BA
:100E50008E01E55BFE4F808190E008958FEF9FEF5C
:100E6000089520918B0130918C0180918D0190919A
:100E70008E0128173907A9F0E0918D01F0918E01BC
:100E8000E55BFE4F808120918D0130918E012F5FB7
:100E90003F4F2F73332730938E0120938D0190E0C5
:100EA00008958FEF9FEF0895CF93DF93C0918B014B
:100EB000D0918C012196CF73DD2780918D01909187
:100EC0008E01C817D90799F082E00E941F048F3F56
:100ED0002FEF920761F0E0918B01F0918C01E55BBF
:100EE000FE4F8083D0938C01C0938B01DFCFDF91C5
:100EF000CF91089583E00C9486060F931F93CF93B0
:100F0000DF931F92CDB7DEB78C0169838091070113
:100F1000882359F041E050E0BE016F5F7F4F83E0CE
:100F20000E945004181619063CF081E090E0F80188
:100F30009383828380E090E00F90DF91CF911F91A7
:100F40000F910895FC0190819E5F908342E450E0F0
:100F500069E971E080E80C94E804FC0181819081EA
:100F6000913A59F4813209F04DC047E050E060E019
:100F700071E080E00E94E80447C0913209F042C06D
:100F8000803239F467E070E080E091E00E942F0544
:100F90003BC0823209F036C0828180930701809184
:100FA000000190910101A0910201B0910301803BE9
:100FB0009440A105B10541F58091070180FD11C064
:100FC00087E797E790930108809300089BE088E10A
:100FD0000FB6F894A895809360000FBE90936000C0
:100FE00013C00FB6F894A895809160008861809333
:100FF0006000109260000FBEA89510920108109238
:10100000000802C080E0089581E00895EDE3F1E07A
:101010001382128288EE93E0A0E0B0E0848395838F
:10102000A683B7838EE091E0918380830895EF9249
:10103000FF921F93CF93DF93EC01162FE881F98184
:101040000480F581E02D09957C01E881F981068015
:10105000F781E02D612FCE010995C7019927DF9116
:10106000CF911F91FF90EF900895FC0190819F5FB9
:10107000908349E150E06BE572E080E80C94E8046D
:1010800045E650E064E772E080E80C94E804EF92F3
:10109000FF920F931F93CF93DF931F92CDB7DEB7CD
:1010A00089838B017A0141E050E0BE016F5F7F4F81
:1010B00084E00E945004A701B80184E40E94500417
:1010C0000F90DF91CF911F910F91FF90EF900895B6
:1010D000FC0191818081813A31F481E0913091F07D
:1010E000933089F411C0813271F49B3021F48281F4
:1010F0008093090105C09A3031F482818093080100
:1011000081E00895089580E0089548E050E082E08D
:101110000C944708DC01683810F068582DC0E62FA1
:10112000F0E067FF11C0E058F10981E090E001C0F4
:10113000880FEA95EAF714969C911497892B1496D8
:101140008C93149760E018C0E552FE4F64916111D2
:1011500009C081E090E013969C938E93129780E0F3
:1011600090E0089567FF08C014968C9114978260F0
:1011700014968C9314976F7716968C911697861702
:1011800051F117968C911797861729F118968C9123
:101190001897861701F119968C9119978617D9F02F
:1011A0001A968C911A978617B1F01B968C911B9703
:1011B000861789F0FD01369680E090E0219121119B
:1011C00005C0FD01E80FF91F668305C00196863052
:1011D0009105A1F7BECFCD01BD016C5F7F4F0E948D
:1011E000850881E090E00895DC01683810F06858C7
:1011F00025C0E62FF0E067FF12C0E058F10981E05A
:1012000090E001C0880FEA95EAF7809514969C91CA
:101210001497892314968C93149760E00FC0E552BD
:10122000FE4F6491662301F167FF08C014968C910C
:1012300014978D7F14968C9314976F77FD013696D3
:1012400086E0662321F09081961301C010828150C0
:1012500031968111F6CFCD01BD016C5F7F4F0E94A9
:10126000850881E090E0089580E090E00895FC0119
:101270001682178210861186128613861482BC018C
:101280006C5F7F4F0C94850810929B01EFE8F1E0B2
:101290001382128280E291E0918380830895CF923D
:1012A000DF92EF92FF920F931F93CF93DF936C0126
:1012B000EB017B01E40EF51E00E010E0CE15DF052A
:1012C00061F06991D601ED91FC910190F081E02DE2
:1012D000C6010995080F191FF1CFC801DF91CF9101
:1012E0001F910F91FF90EF90DF90CF900895EE0F38
:0E12F000FF1F0590F491E02D0994F894FFCFB4
:1012FE0000E10000000000000101000000007D0779
:10130E004F090D0731071A077A075407000000002E
:0A131E0017084F098A08F408370980
:00000001FF
